{
  "contractName": "ECIOMarketplace",
  "abi": [
    {
      "inputs": [],
      "stateMutability": "nonpayable",
      "type": "constructor"
    },
    {
      "anonymous": false,
      "inputs": [
        {
          "indexed": true,
          "internalType": "address",
          "name": "nftContract",
          "type": "address"
        },
        {
          "indexed": true,
          "internalType": "uint256",
          "name": "itemId",
          "type": "uint256"
        },
        {
          "indexed": true,
          "internalType": "uint256",
          "name": "tokenId",
          "type": "uint256"
        },
        {
          "indexed": false,
          "internalType": "address",
          "name": "seller",
          "type": "address"
        },
        {
          "indexed": false,
          "internalType": "address",
          "name": "owner",
          "type": "address"
        },
        {
          "indexed": false,
          "internalType": "uint256",
          "name": "price",
          "type": "uint256"
        },
        {
          "indexed": false,
          "internalType": "address",
          "name": "buyWithTokenContract",
          "type": "address"
        },
        {
          "indexed": false,
          "internalType": "bool",
          "name": "sold",
          "type": "bool"
        },
        {
          "indexed": false,
          "internalType": "bool",
          "name": "cancel",
          "type": "bool"
        }
      ],
      "name": "MarketItemUpdate",
      "type": "event"
    },
    {
      "inputs": [],
      "name": "getListingPrice",
      "outputs": [
        {
          "internalType": "uint256",
          "name": "",
          "type": "uint256"
        }
      ],
      "stateMutability": "view",
      "type": "function"
    },
    {
      "inputs": [
        {
          "internalType": "uint256",
          "name": "itemId",
          "type": "uint256"
        }
      ],
      "name": "cancelMarketItem",
      "outputs": [],
      "stateMutability": "nonpayable",
      "type": "function"
    },
    {
      "inputs": [
        {
          "internalType": "address",
          "name": "nftContract",
          "type": "address"
        },
        {
          "internalType": "uint256",
          "name": "tokenId",
          "type": "uint256"
        },
        {
          "internalType": "uint256",
          "name": "price",
          "type": "uint256"
        },
        {
          "internalType": "address",
          "name": "buyWithTokenContract",
          "type": "address"
        }
      ],
      "name": "createMarketItem",
      "outputs": [],
      "stateMutability": "payable",
      "type": "function"
    },
    {
      "inputs": [
        {
          "internalType": "address",
          "name": "nftContract",
          "type": "address"
        },
        {
          "internalType": "uint256",
          "name": "itemId",
          "type": "uint256"
        }
      ],
      "name": "createMarketSale",
      "outputs": [],
      "stateMutability": "payable",
      "type": "function"
    },
    {
      "inputs": [],
      "name": "fetchMarketItems",
      "outputs": [
        {
          "components": [
            {
              "internalType": "address",
              "name": "nftContract",
              "type": "address"
            },
            {
              "internalType": "uint256",
              "name": "itemId",
              "type": "uint256"
            },
            {
              "internalType": "uint256",
              "name": "tokenId",
              "type": "uint256"
            },
            {
              "internalType": "address",
              "name": "seller",
              "type": "address"
            },
            {
              "internalType": "address",
              "name": "owner",
              "type": "address"
            },
            {
              "internalType": "uint256",
              "name": "price",
              "type": "uint256"
            },
            {
              "internalType": "address",
              "name": "buyWithTokenContract",
              "type": "address"
            },
            {
              "internalType": "bool",
              "name": "sold",
              "type": "bool"
            },
            {
              "internalType": "bool",
              "name": "cancel",
              "type": "bool"
            }
          ],
          "internalType": "struct ECIOMarketplace.MarketItem[]",
          "name": "",
          "type": "tuple[]"
        }
      ],
      "stateMutability": "view",
      "type": "function"
    },
    {
      "inputs": [],
      "name": "fetchMyNFTs",
      "outputs": [
        {
          "components": [
            {
              "internalType": "address",
              "name": "nftContract",
              "type": "address"
            },
            {
              "internalType": "uint256",
              "name": "itemId",
              "type": "uint256"
            },
            {
              "internalType": "uint256",
              "name": "tokenId",
              "type": "uint256"
            },
            {
              "internalType": "address",
              "name": "seller",
              "type": "address"
            },
            {
              "internalType": "address",
              "name": "owner",
              "type": "address"
            },
            {
              "internalType": "uint256",
              "name": "price",
              "type": "uint256"
            },
            {
              "internalType": "address",
              "name": "buyWithTokenContract",
              "type": "address"
            },
            {
              "internalType": "bool",
              "name": "sold",
              "type": "bool"
            },
            {
              "internalType": "bool",
              "name": "cancel",
              "type": "bool"
            }
          ],
          "internalType": "struct ECIOMarketplace.MarketItem[]",
          "name": "",
          "type": "tuple[]"
        }
      ],
      "stateMutability": "view",
      "type": "function"
    },
    {
      "inputs": [],
      "name": "fetchItemsCreated",
      "outputs": [
        {
          "components": [
            {
              "internalType": "address",
              "name": "nftContract",
              "type": "address"
            },
            {
              "internalType": "uint256",
              "name": "itemId",
              "type": "uint256"
            },
            {
              "internalType": "uint256",
              "name": "tokenId",
              "type": "uint256"
            },
            {
              "internalType": "address",
              "name": "seller",
              "type": "address"
            },
            {
              "internalType": "address",
              "name": "owner",
              "type": "address"
            },
            {
              "internalType": "uint256",
              "name": "price",
              "type": "uint256"
            },
            {
              "internalType": "address",
              "name": "buyWithTokenContract",
              "type": "address"
            },
            {
              "internalType": "bool",
              "name": "sold",
              "type": "bool"
            },
            {
              "internalType": "bool",
              "name": "cancel",
              "type": "bool"
            }
          ],
          "internalType": "struct ECIOMarketplace.MarketItem[]",
          "name": "",
          "type": "tuple[]"
        }
      ],
      "stateMutability": "view",
      "type": "function"
    }
  ],
  "bytecode": "0x60806040526101a9600455606460055534801561001b57600080fd5b50600160008190555061234e806100336000396000f3fe6080604052600436106100705760003560e01c8063a6e22b021161004e578063a6e22b02146100f6578063b37654a71461011f578063c23b139e1461013b578063f064c32e1461015757610070565b80630f08efe01461007557806312e85585146100a0578063202e3740146100cb575b600080fd5b34801561008157600080fd5b5061008a610182565b6040516100979190611b99565b60405180910390f35b3480156100ac57600080fd5b506100b56104d0565b6040516100c29190611bca565b60405180910390f35b3480156100d757600080fd5b506100e06104da565b6040516100ed9190611b99565b60405180910390f35b34801561010257600080fd5b5061011d60048036038101906101189190611c16565b610894565b005b61013960048036038101906101349190611c6f565b610c2e565b005b61015560048036038101906101509190611cd6565b61104e565b005b34801561016357600080fd5b5061016c611531565b6040516101799190611b99565b60405180910390f35b6060600061019060016118f1565b9050600061019e60036118f1565b6101a860026118f1565b6101b260016118f1565b6101bc9190611d45565b6101c69190611d45565b90506000808267ffffffffffffffff8111156101e5576101e4611d79565b5b60405190808252806020026020018201604052801561021e57816020015b61020b611915565b8152602001906001900390816102035790505b50905060005b848110156104c55760001515600660006001846102419190611da8565b815260200190815260200160002060060160149054906101000a900460ff1615151480156102a25750600015156006600060018461027f9190611da8565b815260200190815260200160002060060160159054906101000a900460ff161515145b156104b2576000600660006001846102ba9190611da8565b8152602001908152602001600020905080604051806101200160405290816000820160009054906101000a900473ffffffffffffffffffffffffffffffffffffffff1673ffffffffffffffffffffffffffffffffffffffff1673ffffffffffffffffffffffffffffffffffffffff16815260200160018201548152602001600282015481526020016003820160009054906101000a900473ffffffffffffffffffffffffffffffffffffffff1673ffffffffffffffffffffffffffffffffffffffff1673ffffffffffffffffffffffffffffffffffffffff1681526020016004820160009054906101000a900473ffffffffffffffffffffffffffffffffffffffff1673ffffffffffffffffffffffffffffffffffffffff1673ffffffffffffffffffffffffffffffffffffffff168152602001600582015481526020016006820160009054906101000a900473ffffffffffffffffffffffffffffffffffffffff1673ffffffffffffffffffffffffffffffffffffffff1673ffffffffffffffffffffffffffffffffffffffff1681526020016006820160149054906101000a900460ff161515151581526020016006820160159054906101000a900460ff16151515158152505083858151811061049657610495611dfe565b5b60200260200101819052506001846104ae9190611da8565b9350505b80806104bd90611e2d565b915050610224565b508094505050505090565b6000600554905090565b606060006104e860016118f1565b905060008060005b83811015610591573373ffffffffffffffffffffffffffffffffffffffff16600660006001846105209190611da8565b815260200190815260200160002060040160009054906101000a900473ffffffffffffffffffffffffffffffffffffffff1673ffffffffffffffffffffffffffffffffffffffff16141561057e5760018361057b9190611da8565b92505b808061058990611e2d565b9150506104f0565b5060008267ffffffffffffffff8111156105ae576105ad611d79565b5b6040519080825280602002602001820160405280156105e757816020015b6105d4611915565b8152602001906001900390816105cc5790505b50905060005b84811015610889573373ffffffffffffffffffffffffffffffffffffffff166006600060018461061d9190611da8565b815260200190815260200160002060040160009054906101000a900473ffffffffffffffffffffffffffffffffffffffff1673ffffffffffffffffffffffffffffffffffffffff1614156108765760006006600060018461067e9190611da8565b8152602001908152602001600020905080604051806101200160405290816000820160009054906101000a900473ffffffffffffffffffffffffffffffffffffffff1673ffffffffffffffffffffffffffffffffffffffff1673ffffffffffffffffffffffffffffffffffffffff16815260200160018201548152602001600282015481526020016003820160009054906101000a900473ffffffffffffffffffffffffffffffffffffffff1673ffffffffffffffffffffffffffffffffffffffff1673ffffffffffffffffffffffffffffffffffffffff1681526020016004820160009054906101000a900473ffffffffffffffffffffffffffffffffffffffff1673ffffffffffffffffffffffffffffffffffffffff1673ffffffffffffffffffffffffffffffffffffffff168152602001600582015481526020016006820160009054906101000a900473ffffffffffffffffffffffffffffffffffffffff1673ffffffffffffffffffffffffffffffffffffffff1673ffffffffffffffffffffffffffffffffffffffff1681526020016006820160149054906101000a900460ff161515151581526020016006820160159054906101000a900460ff16151515158152505083858151811061085a57610859611dfe565b5b60200260200101819052506001846108729190611da8565b9350505b808061088190611e2d565b9150506105ed565b508094505050505090565b600260005414156108da576040517f08c379a00000000000000000000000000000000000000000000000000000000081526004016108d190611ed3565b60405180910390fd5b6002600081905550600015156006600083815260200190815260200160002060060160149054906101000a900460ff1615151461094c576040517f08c379a000000000000000000000000000000000000000000000000000000000815260040161094390611f3f565b60405180910390fd5b600015156006600083815260200190815260200160002060060160159054906101000a900460ff161515146109b6576040517f08c379a00000000000000000000000000000000000000000000000000000000081526004016109ad90611fab565b60405180910390fd5b3373ffffffffffffffffffffffffffffffffffffffff166006600083815260200190815260200160002060030160009054906101000a900473ffffffffffffffffffffffffffffffffffffffff1673ffffffffffffffffffffffffffffffffffffffff1614610a2457600080fd5b60016006600083815260200190815260200160002060060160156101000a81548160ff0219169083151502179055506006600082815260200190815260200160002060000160009054906101000a900473ffffffffffffffffffffffffffffffffffffffff1673ffffffffffffffffffffffffffffffffffffffff166323b872dd303360066000868152602001908152602001600020600201546040518463ffffffff1660e01b8152600401610adc93929190611fda565b600060405180830381600087803b158015610af657600080fd5b505af1158015610b0a573d6000803e3d6000fd5b50505050610b1860036118ff565b600660008281526020019081526020016000206002015460066000838152602001908152602001600020600101546006600084815260200190815260200160002060000160009054906101000a900473ffffffffffffffffffffffffffffffffffffffff1673ffffffffffffffffffffffffffffffffffffffff167fab2df3aa1d138b9500908647a955e5bac6dce372e51a3b7961e492c75271e6bf60003360066000888152602001908152602001600020600501546006600089815260200190815260200160002060060160009054906101000a900473ffffffffffffffffffffffffffffffffffffffff1660016000604051610c1b96959493929190612020565b60405180910390a4600160008190555050565b60026000541415610c74576040517f08c379a0000000000000000000000000000000000000000000000000000000008152600401610c6b90611ed3565b60405180910390fd5b600260008190555060648211610cbf576040517f08c379a0000000000000000000000000000000000000000000000000000000008152600401610cb6906120cd565b60405180910390fd5b610cc960016118ff565b6000610cd560016118f1565b90506040518061012001604052808673ffffffffffffffffffffffffffffffffffffffff1681526020018281526020018581526020013373ffffffffffffffffffffffffffffffffffffffff168152602001600073ffffffffffffffffffffffffffffffffffffffff1681526020018481526020018373ffffffffffffffffffffffffffffffffffffffff168152602001600015158152602001600015158152506006600083815260200190815260200160002060008201518160000160006101000a81548173ffffffffffffffffffffffffffffffffffffffff021916908373ffffffffffffffffffffffffffffffffffffffff160217905550602082015181600101556040820151816002015560608201518160030160006101000a81548173ffffffffffffffffffffffffffffffffffffffff021916908373ffffffffffffffffffffffffffffffffffffffff16021790555060808201518160040160006101000a81548173ffffffffffffffffffffffffffffffffffffffff021916908373ffffffffffffffffffffffffffffffffffffffff16021790555060a0820151816005015560c08201518160060160006101000a81548173ffffffffffffffffffffffffffffffffffffffff021916908373ffffffffffffffffffffffffffffffffffffffff16021790555060e08201518160060160146101000a81548160ff0219169083151502179055506101008201518160060160156101000a81548160ff0219169083151502179055509050508473ffffffffffffffffffffffffffffffffffffffff1663095ea7b330866040518363ffffffff1660e01b8152600401610f429291906120ed565b600060405180830381600087803b158015610f5c57600080fd5b505af1158015610f70573d6000803e3d6000fd5b505050508473ffffffffffffffffffffffffffffffffffffffff166323b872dd3330876040518463ffffffff1660e01b8152600401610fb193929190611fda565b600060405180830381600087803b158015610fcb57600080fd5b505af1158015610fdf573d6000803e3d6000fd5b5050505083818673ffffffffffffffffffffffffffffffffffffffff167fab2df3aa1d138b9500908647a955e5bac6dce372e51a3b7961e492c75271e6bf336000888860008060405161103796959493929190612020565b60405180910390a450600160008190555050505050565b60026000541415611094576040517f08c379a000000000000000000000000000000000000000000000000000000000815260040161108b90611ed3565b60405180910390fd5b600260008190555060006006600083815260200190815260200160002060050154905060006006600084815260200190815260200160002060020154905060006006600085815260200190815260200160002060060160009054906101000a900473ffffffffffffffffffffffffffffffffffffffff16905060008173ffffffffffffffffffffffffffffffffffffffff166370a08231336040518263ffffffff1660e01b81526004016111489190612116565b602060405180830381865afa158015611165573d6000803e3d6000fd5b505050506040513d601f19601f820116820180604052508101906111899190612146565b905060006127106004548661119e9190612173565b6111a891906121fc565b9050600081866111b89190611d45565b9050600082876111c89190611da8565b90508084101561120d576040517f08c379a00000000000000000000000000000000000000000000000000000000081526004016112049061229f565b60405180910390fd5b8473ffffffffffffffffffffffffffffffffffffffff1663095ea7b330836040518363ffffffff1660e01b81526004016112489291906120ed565b6020604051808303816000875af1158015611267573d6000803e3d6000fd5b505050506040513d601f19601f8201168201806040525081019061128b91906122eb565b508473ffffffffffffffffffffffffffffffffffffffff166323b872dd3330866040518463ffffffff1660e01b81526004016112c993929190611fda565b6020604051808303816000875af11580156112e8573d6000803e3d6000fd5b505050506040513d601f19601f8201168201806040525081019061130c91906122eb565b508473ffffffffffffffffffffffffffffffffffffffff166323b872dd33600660008c815260200190815260200160002060030160009054906101000a900473ffffffffffffffffffffffffffffffffffffffff16856040518463ffffffff1660e01b815260040161138093929190611fda565b6020604051808303816000875af115801561139f573d6000803e3d6000fd5b505050506040513d601f19601f820116820180604052508101906113c391906122eb565b508873ffffffffffffffffffffffffffffffffffffffff166323b872dd3033896040518463ffffffff1660e01b815260040161140193929190611fda565b600060405180830381600087803b15801561141b57600080fd5b505af115801561142f573d6000803e3d6000fd5b5050505033600660008a815260200190815260200160002060040160006101000a81548173ffffffffffffffffffffffffffffffffffffffff021916908373ffffffffffffffffffffffffffffffffffffffff1602179055506001600660008a815260200190815260200160002060060160146101000a81548160ff0219169083151502179055506114c160026118ff565b85888a73ffffffffffffffffffffffffffffffffffffffff167fab2df3aa1d138b9500908647a955e5bac6dce372e51a3b7961e492c75271e6bf6000338c8b6001600060405161151696959493929190612020565b60405180910390a45050505050505060016000819055505050565b6060600061153f60016118f1565b905060008060005b838110156115e8573373ffffffffffffffffffffffffffffffffffffffff16600660006001846115779190611da8565b815260200190815260200160002060030160009054906101000a900473ffffffffffffffffffffffffffffffffffffffff1673ffffffffffffffffffffffffffffffffffffffff1614156115d5576001836115d29190611da8565b92505b80806115e090611e2d565b915050611547565b5060008267ffffffffffffffff81111561160557611604611d79565b5b60405190808252806020026020018201604052801561163e57816020015b61162b611915565b8152602001906001900390816116235790505b50905060005b848110156118e6573373ffffffffffffffffffffffffffffffffffffffff16600660006001846116749190611da8565b815260200190815260200160002060030160009054906101000a900473ffffffffffffffffffffffffffffffffffffffff1673ffffffffffffffffffffffffffffffffffffffff1614156118d35760006001826116d19190611da8565b9050600060066000838152602001908152602001600020905080604051806101200160405290816000820160009054906101000a900473ffffffffffffffffffffffffffffffffffffffff1673ffffffffffffffffffffffffffffffffffffffff1673ffffffffffffffffffffffffffffffffffffffff16815260200160018201548152602001600282015481526020016003820160009054906101000a900473ffffffffffffffffffffffffffffffffffffffff1673ffffffffffffffffffffffffffffffffffffffff1673ffffffffffffffffffffffffffffffffffffffff1681526020016004820160009054906101000a900473ffffffffffffffffffffffffffffffffffffffff1673ffffffffffffffffffffffffffffffffffffffff1673ffffffffffffffffffffffffffffffffffffffff168152602001600582015481526020016006820160009054906101000a900473ffffffffffffffffffffffffffffffffffffffff1673ffffffffffffffffffffffffffffffffffffffff1673ffffffffffffffffffffffffffffffffffffffff1681526020016006820160149054906101000a900460ff161515151581526020016006820160159054906101000a900460ff1615151515815250508486815181106118b6576118b5611dfe565b5b60200260200101819052506001856118ce9190611da8565b945050505b80806118de90611e2d565b915050611644565b508094505050505090565b600081600001549050919050565b6001816000016000828254019250508190555050565b604051806101200160405280600073ffffffffffffffffffffffffffffffffffffffff1681526020016000815260200160008152602001600073ffffffffffffffffffffffffffffffffffffffff168152602001600073ffffffffffffffffffffffffffffffffffffffff16815260200160008152602001600073ffffffffffffffffffffffffffffffffffffffff1681526020016000151581526020016000151581525090565b600081519050919050565b600082825260208201905092915050565b6000819050602082019050919050565b600073ffffffffffffffffffffffffffffffffffffffff82169050919050565b6000611a14826119e9565b9050919050565b611a2481611a09565b82525050565b6000819050919050565b611a3d81611a2a565b82525050565b60008115159050919050565b611a5881611a43565b82525050565b61012082016000820151611a756000850182611a1b565b506020820151611a886020850182611a34565b506040820151611a9b6040850182611a34565b506060820151611aae6060850182611a1b565b506080820151611ac16080850182611a1b565b5060a0820151611ad460a0850182611a34565b5060c0820151611ae760c0850182611a1b565b5060e0820151611afa60e0850182611a4f565b50610100820151611b0f610100850182611a4f565b50505050565b6000611b218383611a5e565b6101208301905092915050565b6000602082019050919050565b6000611b46826119bd565b611b5081856119c8565b9350611b5b836119d9565b8060005b83811015611b8c578151611b738882611b15565b9750611b7e83611b2e565b925050600181019050611b5f565b5085935050505092915050565b60006020820190508181036000830152611bb38184611b3b565b905092915050565b611bc481611a2a565b82525050565b6000602082019050611bdf6000830184611bbb565b92915050565b600080fd5b611bf381611a2a565b8114611bfe57600080fd5b50565b600081359050611c1081611bea565b92915050565b600060208284031215611c2c57611c2b611be5565b5b6000611c3a84828501611c01565b91505092915050565b611c4c81611a09565b8114611c5757600080fd5b50565b600081359050611c6981611c43565b92915050565b60008060008060808587031215611c8957611c88611be5565b5b6000611c9787828801611c5a565b9450506020611ca887828801611c01565b9350506040611cb987828801611c01565b9250506060611cca87828801611c5a565b91505092959194509250565b60008060408385031215611ced57611cec611be5565b5b6000611cfb85828601611c5a565b9250506020611d0c85828601611c01565b9150509250929050565b7f4e487b7100000000000000000000000000000000000000000000000000000000600052601160045260246000fd5b6000611d5082611a2a565b9150611d5b83611a2a565b925082821015611d6e57611d6d611d16565b5b828203905092915050565b7f4e487b7100000000000000000000000000000000000000000000000000000000600052604160045260246000fd5b6000611db382611a2a565b9150611dbe83611a2a565b9250827fffffffffffffffffffffffffffffffffffffffffffffffffffffffffffffffff03821115611df357611df2611d16565b5b828201905092915050565b7f4e487b7100000000000000000000000000000000000000000000000000000000600052603260045260246000fd5b6000611e3882611a2a565b91507fffffffffffffffffffffffffffffffffffffffffffffffffffffffffffffffff821415611e6b57611e6a611d16565b5b600182019050919050565b600082825260208201905092915050565b7f5265656e7472616e637947756172643a207265656e7472616e742063616c6c00600082015250565b6000611ebd601f83611e76565b9150611ec882611e87565b602082019050919050565b60006020820190508181036000830152611eec81611eb0565b9050919050565b7f536f6c64206974656d0000000000000000000000000000000000000000000000600082015250565b6000611f29600983611e76565b9150611f3482611ef3565b602082019050919050565b60006020820190508181036000830152611f5881611f1c565b9050919050565b7f43616e63656c6564206974656d00000000000000000000000000000000000000600082015250565b6000611f95600d83611e76565b9150611fa082611f5f565b602082019050919050565b60006020820190508181036000830152611fc481611f88565b9050919050565b611fd481611a09565b82525050565b6000606082019050611fef6000830186611fcb565b611ffc6020830185611fcb565b6120096040830184611bbb565b949350505050565b61201a81611a43565b82525050565b600060c0820190506120356000830189611fcb565b6120426020830188611fcb565b61204f6040830187611bbb565b61205c6060830186611fcb565b6120696080830185612011565b61207660a0830184612011565b979650505050505050565b7f5072696365206d757374206265206174206c6561737420313030207765690000600082015250565b60006120b7601e83611e76565b91506120c282612081565b602082019050919050565b600060208201905081810360008301526120e6816120aa565b9050919050565b60006040820190506121026000830185611fcb565b61210f6020830184611bbb565b9392505050565b600060208201905061212b6000830184611fcb565b92915050565b60008151905061214081611bea565b92915050565b60006020828403121561215c5761215b611be5565b5b600061216a84828501612131565b91505092915050565b600061217e82611a2a565b915061218983611a2a565b9250817fffffffffffffffffffffffffffffffffffffffffffffffffffffffffffffffff04831182151516156121c2576121c1611d16565b5b828202905092915050565b7f4e487b7100000000000000000000000000000000000000000000000000000000600052601260045260246000fd5b600061220782611a2a565b915061221283611a2a565b925082612222576122216121cd565b5b828204905092915050565b7f596f75722062616c616e636520686173206e6f7420656e6f75676820616d6f7560008201527f6e74202b20696e636c7564696e67206665652e00000000000000000000000000602082015250565b6000612289603383611e76565b91506122948261222d565b604082019050919050565b600060208201905081810360008301526122b88161227c565b9050919050565b6122c881611a43565b81146122d357600080fd5b50565b6000815190506122e5816122bf565b92915050565b60006020828403121561230157612300611be5565b5b600061230f848285016122d6565b9150509291505056fea2646970667358221220a6024861c0900a7bcbe3afaf201699429e1494b5e13e7de17b553876c5cb370464736f6c634300080a0033",
  "immutableReferences": {},
  "source": "// SPDX-License-Identifier: MIT\r\npragma solidity >=0.4.22 <0.9.0;\r\n\r\nimport \"@openzeppelin/contracts/utils/Counters.sol\";\r\nimport \"@openzeppelin/contracts/security/ReentrancyGuard.sol\";\r\nimport \"@openzeppelin/contracts/token/ERC721/ERC721.sol\";\r\nimport \"@openzeppelin/contracts/token/ERC20/ERC20.sol\";\r\n\r\ncontract ECIOMarketplace is ReentrancyGuard {\r\n    using Counters for Counters.Counter;\r\n\r\n    Counters.Counter private _itemIds;\r\n    Counters.Counter private _itemsSold;\r\n    Counters.Counter private _itemsCanceled;\r\n\r\n    uint256 feesRate = 425;\r\n    uint256 listingPrice = 100;\r\n\r\n    constructor() {}\r\n\r\n    struct MarketItem {\r\n        address nftContract;\r\n        uint256 itemId;\r\n        uint256 tokenId;\r\n        address seller;\r\n        address owner;\r\n        uint256 price;\r\n        address buyWithTokenContract;\r\n        bool sold;\r\n        bool cancel;\r\n    }\r\n\r\n    mapping(uint256 => MarketItem) private idToMarketItem;\r\n\r\n    event MarketItemUpdate(\r\n        address indexed nftContract,\r\n        uint256 indexed itemId,\r\n        uint256 indexed tokenId,\r\n        address seller,\r\n        address owner,\r\n        uint256 price,\r\n        address buyWithTokenContract,\r\n        bool sold,\r\n        bool cancel\r\n    );\r\n\r\n\r\n\r\n\r\n    /* Returns the listing price of the contract */\r\n    function getListingPrice() public view returns (uint256) {\r\n        return listingPrice;\r\n    }\r\n\r\n    function cancelMarketItem(uint256 itemId) public nonReentrant {\r\n        require(idToMarketItem[itemId].sold == false, \"Sold item\");\r\n        require(idToMarketItem[itemId].cancel == false, \"Canceled item\");\r\n        require(idToMarketItem[itemId].seller == msg.sender); // check if the person is seller\r\n\r\n        idToMarketItem[itemId].cancel = true;\r\n\r\n        //Transfer back to owner :: owner is marketplace now >>> original owner\r\n        IERC721(idToMarketItem[itemId].nftContract).transferFrom(\r\n            address(this),\r\n            msg.sender,\r\n            idToMarketItem[itemId].tokenId\r\n        );\r\n        _itemsCanceled.increment();\r\n\r\n        emit MarketItemUpdate(\r\n            idToMarketItem[itemId].nftContract,\r\n            idToMarketItem[itemId].itemId,\r\n            idToMarketItem[itemId].tokenId,\r\n            address(0),\r\n            msg.sender,\r\n            idToMarketItem[itemId].price,\r\n            idToMarketItem[itemId].buyWithTokenContract,\r\n            true,\r\n            false\r\n        );\r\n\r\n    }\r\n\r\n    /* Places an item for sale on the marketplace */\r\n    function createMarketItem(\r\n        address nftContract,\r\n        uint256 tokenId,\r\n        uint256 price,\r\n        address buyWithTokenContract\r\n    ) public payable nonReentrant {\r\n        // set require ERC721 approve below\r\n        require(price > 100, \"Price must be at least 100 wei\");\r\n        _itemIds.increment();\r\n        uint256 itemId = _itemIds.current();\r\n        idToMarketItem[itemId] = MarketItem(\r\n            nftContract,\r\n            itemId,\r\n            tokenId,\r\n            msg.sender,\r\n            address(0),\r\n            price,\r\n            buyWithTokenContract,\r\n            false,\r\n            false\r\n        );\r\n\r\n        // seller must approve market contract\r\n        IERC721(nftContract).approve(address(this), tokenId);\r\n\r\n        // tranfer NFT ownership to Market contract\r\n        IERC721(nftContract).transferFrom(msg.sender, address(this), tokenId);\r\n\r\n        emit MarketItemUpdate(\r\n            nftContract,\r\n            itemId,\r\n            tokenId,\r\n            msg.sender,\r\n            address(0),\r\n            price,\r\n            buyWithTokenContract,\r\n            false,\r\n            false\r\n        );\r\n    }\r\n\r\n    /* Creates the sale of a marketplace item */\r\n    /* Transfers ownership of the item, as well as funds between parties */\r\n    function createMarketSale(address nftContract, uint256 itemId)\r\n        public\r\n        payable\r\n        nonReentrant\r\n    {\r\n        uint256 price = idToMarketItem[itemId].price;\r\n        uint256 tokenId = idToMarketItem[itemId].tokenId;\r\n        address buyWithTokenContract = idToMarketItem[itemId].buyWithTokenContract;\r\n        uint256 balance = ERC20(buyWithTokenContract).balanceOf(msg.sender);\r\n        uint256 fee = price * feesRate / 10000;\r\n        uint256 amount = price - fee;\r\n        uint256 totalAmount = price + fee;\r\n\r\n        require(\r\n            balance >= totalAmount,\r\n            \"Your balance has not enough amount + including fee.\"\r\n        );\r\n\r\n        //call approve\r\n        IERC20(buyWithTokenContract).approve(address(this), totalAmount);\r\n\r\n        //Transfer fee to platform.\r\n        IERC20(buyWithTokenContract).transferFrom(msg.sender, address(this), fee);\r\n\r\n        //Transfer token(BUSD) to nft seller.\r\n        IERC20(buyWithTokenContract).transferFrom(msg.sender, idToMarketItem[itemId].seller, amount);\r\n\r\n        // idToMarketItem[itemId].seller.transfer(msg.value);\r\n        IERC721(nftContract).transferFrom(address(this), msg.sender, tokenId);\r\n\r\n        idToMarketItem[itemId].owner = msg.sender;\r\n        idToMarketItem[itemId].sold = true;\r\n        _itemsSold.increment();\r\n\r\n\r\n        emit MarketItemUpdate(\r\n            nftContract,\r\n            itemId,\r\n            tokenId,\r\n            address(0),\r\n            msg.sender,\r\n            price,\r\n            buyWithTokenContract,\r\n            true,\r\n            false\r\n        );\r\n\r\n    }\r\n\r\n    /* Returns all unsold market items */\r\n    function fetchMarketItems() public view returns (MarketItem[] memory) {\r\n        uint256 itemCount = _itemIds.current();\r\n        uint256 unsoldItemCount = _itemIds.current() -\r\n            _itemsSold.current() -\r\n            _itemsCanceled.current();\r\n\r\n        uint256 currentIndex = 0;\r\n\r\n        MarketItem[] memory items = new MarketItem[](unsoldItemCount);\r\n\r\n        for (uint256 i = 0; i < itemCount; i++) {\r\n            if (\r\n                idToMarketItem[i + 1].sold == false &&\r\n                idToMarketItem[i + 1].cancel == false\r\n            ) {\r\n                MarketItem storage currentItem = idToMarketItem[i + 1];\r\n                items[currentIndex] = currentItem; /// ?\r\n                currentIndex += 1;\r\n            }\r\n        }\r\n        return items;\r\n    }\r\n\r\n    /* Returns only items that a user has purchased */\r\n    function fetchMyNFTs() public view returns (MarketItem[] memory) {\r\n        uint256 totalItemCount = _itemIds.current();\r\n        uint256 itemCount = 0;\r\n        uint256 currentIndex = 0;\r\n\r\n        for (uint256 i = 0; i < totalItemCount; i++) {\r\n            if (idToMarketItem[i + 1].owner == msg.sender) {\r\n                itemCount += 1;\r\n            }\r\n        }\r\n\r\n        MarketItem[] memory items = new MarketItem[](itemCount);\r\n        for (uint256 i = 0; i < totalItemCount; i++) {\r\n            if (idToMarketItem[i + 1].owner == msg.sender) {\r\n                MarketItem storage currentItem = idToMarketItem[i + 1];\r\n                items[currentIndex] = currentItem;\r\n                currentIndex += 1;\r\n            }\r\n        }\r\n        return items;\r\n    }\r\n\r\n\r\n\r\n    /* Returns only items a user has created */\r\n    function fetchItemsCreated() public view returns (MarketItem[] memory) {\r\n        uint256 totalItemCount = _itemIds.current();\r\n        uint256 itemCount = 0;\r\n        uint256 currentIndex = 0;\r\n\r\n        for (uint256 i = 0; i < totalItemCount; i++) {\r\n            if (idToMarketItem[i + 1].seller == msg.sender) {\r\n                itemCount += 1;\r\n            }\r\n        }\r\n\r\n        MarketItem[] memory items = new MarketItem[](itemCount);\r\n        for (uint256 i = 0; i < totalItemCount; i++) {\r\n            if (idToMarketItem[i + 1].seller == msg.sender) {\r\n                uint256 currentId = i + 1;\r\n                MarketItem storage currentItem = idToMarketItem[currentId];\r\n                items[currentIndex] = currentItem;\r\n                currentIndex += 1;\r\n            }\r\n        }\r\n        return items;\r\n    }\r\n}\r\n",
  "sourcePath": "C:\\Users\\WINDOWS\\Documents\\GitHub\\proxycontract-test\\contracts\\Market.sol",
  "compiler": {
    "name": "solc",
    "version": "0.8.10+commit.fc410830.Emscripten.clang"
  },
  "schemaVersion": "3.4.3",
  "updatedAt": "2021-12-06T14:02:09.004Z",
  "devdoc": {
    "kind": "dev",
    "methods": {},
    "version": 1
  },
  "userdoc": {
    "kind": "user",
    "methods": {},
    "version": 1
  }
}